{
    "_format": "hh-sol-artifact-1",
    "contractName": "NftMarketplace",
    "sourceName": "contracts/NftMarketplace.sol",
    "abi": [
        {
            "inputs": [
                {
                    "internalType": "address",
                    "name": "nftAddress",
                    "type": "address"
                },
                {
                    "internalType": "uint256",
                    "name": "tokenId",
                    "type": "uint256"
                }
            ],
            "name": "AlreadyListed",
            "type": "error"
        },
        {
            "inputs": [],
            "name": "NotApprovedForMarketplace",
            "type": "error"
        },
        {
            "inputs": [
                {
                    "internalType": "address",
                    "name": "nftAddress",
                    "type": "address"
                },
                {
                    "internalType": "uint256",
                    "name": "tokenId",
                    "type": "uint256"
                }
            ],
            "name": "NotListed",
            "type": "error"
        },
        {
            "inputs": [],
            "name": "NotOwner",
            "type": "error"
        },
        {
            "inputs": [
                {
                    "internalType": "address",
                    "name": "nftAddress",
                    "type": "address"
                },
                {
                    "internalType": "uint256",
                    "name": "tokenId",
                    "type": "uint256"
                },
                {
                    "internalType": "uint256",
                    "name": "price",
                    "type": "uint256"
                }
            ],
            "name": "PriceNotMet",
            "type": "error"
        },
        {
            "anonymous": false,
            "inputs": [
                {
                    "indexed": false,
                    "internalType": "uint256",
                    "name": "totalPrice",
                    "type": "uint256"
                },
                {
                    "indexed": false,
                    "internalType": "address",
                    "name": "_tbaAddress",
                    "type": "address"
                }
            ],
            "name": "CalculatePrice",
            "type": "event"
        },
        {
            "anonymous": false,
            "inputs": [
                {
                    "indexed": true,
                    "internalType": "address",
                    "name": "buyer",
                    "type": "address"
                },
                {
                    "indexed": true,
                    "internalType": "address",
                    "name": "nftAddress",
                    "type": "address"
                },
                {
                    "indexed": true,
                    "internalType": "uint256",
                    "name": "tokenId",
                    "type": "uint256"
                },
                {
                    "indexed": false,
                    "internalType": "uint256",
                    "name": "price",
                    "type": "uint256"
                }
            ],
            "name": "ItemBought",
            "type": "event"
        },
        {
            "anonymous": false,
            "inputs": [
                {
                    "indexed": true,
                    "internalType": "address",
                    "name": "seller",
                    "type": "address"
                },
                {
                    "indexed": true,
                    "internalType": "address",
                    "name": "nftAddress",
                    "type": "address"
                },
                {
                    "indexed": true,
                    "internalType": "uint256",
                    "name": "tokenId",
                    "type": "uint256"
                }
            ],
            "name": "ItemCanceled",
            "type": "event"
        },
        {
            "anonymous": false,
            "inputs": [
                {
                    "indexed": true,
                    "internalType": "address",
                    "name": "seller",
                    "type": "address"
                },
                {
                    "indexed": true,
                    "internalType": "address",
                    "name": "nftAddress",
                    "type": "address"
                },
                {
                    "indexed": true,
                    "internalType": "uint256",
                    "name": "tokenId",
                    "type": "uint256"
                },
                {
                    "indexed": false,
                    "internalType": "uint256",
                    "name": "price",
                    "type": "uint256"
                }
            ],
            "name": "ItemListed",
            "type": "event"
        },
        {
            "anonymous": false,
            "inputs": [
                {
                    "indexed": true,
                    "internalType": "address",
                    "name": "nftAddress",
                    "type": "address"
                },
                {
                    "indexed": true,
                    "internalType": "uint256",
                    "name": "tokenId",
                    "type": "uint256"
                },
                {
                    "indexed": true,
                    "internalType": "address",
                    "name": "tbaAccountAddress",
                    "type": "address"
                },
                {
                    "indexed": false,
                    "internalType": "uint256",
                    "name": "price",
                    "type": "uint256"
                }
            ],
            "name": "priceFixed",
            "type": "event"
        },
        {
            "inputs": [
                {
                    "internalType": "address",
                    "name": "nftAddress",
                    "type": "address"
                },
                {
                    "internalType": "uint256",
                    "name": "tokenId",
                    "type": "uint256"
                }
            ],
            "name": "buyFlow",
            "outputs": [],
            "stateMutability": "nonpayable",
            "type": "function"
        },
        {
            "inputs": [
                {
                    "internalType": "address",
                    "name": "nftAddress",
                    "type": "address"
                },
                {
                    "internalType": "uint256",
                    "name": "tokenId",
                    "type": "uint256"
                }
            ],
            "name": "buyItem",
            "outputs": [],
            "stateMutability": "payable",
            "type": "function"
        },
        {
            "inputs": [
                {
                    "internalType": "address",
                    "name": "nftAddress",
                    "type": "address"
                },
                {
                    "internalType": "uint256",
                    "name": "tokenId",
                    "type": "uint256"
                }
            ],
            "name": "cancelListing",
            "outputs": [],
            "stateMutability": "nonpayable",
            "type": "function"
        },
        {
            "inputs": [
                {
                    "internalType": "address",
                    "name": "nftAddress",
                    "type": "address"
                },
                {
                    "internalType": "uint256",
                    "name": "tokenId",
                    "type": "uint256"
                }
            ],
            "name": "getAccount",
            "outputs": [
                {
                    "internalType": "address",
                    "name": "",
                    "type": "address"
                }
            ],
            "stateMutability": "view",
            "type": "function"
        },
        {
            "inputs": [],
            "name": "getAllNft",
            "outputs": [
                {
                    "internalType": "address[]",
                    "name": "nftAddressList",
                    "type": "address[]"
                },
                {
                    "internalType": "uint256[]",
                    "name": "tokenIdList",
                    "type": "uint256[]"
                }
            ],
            "stateMutability": "view",
            "type": "function"
        },
        {
            "inputs": [
                {
                    "internalType": "address",
                    "name": "nftAddress",
                    "type": "address"
                },
                {
                    "internalType": "uint256",
                    "name": "tokenId",
                    "type": "uint256"
                }
            ],
            "name": "getListing",
            "outputs": [
                {
                    "components": [
                        {
                            "internalType": "uint256",
                            "name": "price",
                            "type": "uint256"
                        },
                        {
                            "internalType": "address",
                            "name": "seller",
                            "type": "address"
                        }
                    ],
                    "internalType": "struct NftMarketplace.Listing",
                    "name": "",
                    "type": "tuple"
                }
            ],
            "stateMutability": "view",
            "type": "function"
        },
        {
            "inputs": [
                {
                    "internalType": "address",
                    "name": "seller",
                    "type": "address"
                }
            ],
            "name": "getProceeds",
            "outputs": [
                {
                    "internalType": "uint256",
                    "name": "",
                    "type": "uint256"
                }
            ],
            "stateMutability": "view",
            "type": "function"
        },
        {
            "inputs": [
                {
                    "internalType": "address",
                    "name": "nftAddress",
                    "type": "address"
                },
                {
                    "internalType": "uint256",
                    "name": "tokenId",
                    "type": "uint256"
                }
            ],
            "name": "listItem",
            "outputs": [],
            "stateMutability": "nonpayable",
            "type": "function"
        },
        {
            "inputs": [
                {
                    "internalType": "address",
                    "name": "nftAddress",
                    "type": "address"
                },
                {
                    "internalType": "uint256",
                    "name": "tokenId",
                    "type": "uint256"
                }
            ],
            "name": "priceCalculation",
            "outputs": [
                {
                    "internalType": "uint256",
                    "name": "totalPrice",
                    "type": "uint256"
                }
            ],
            "stateMutability": "nonpayable",
            "type": "function"
        }
    ],
    "bytecode": "0x60806040526040518060800160405280730d79df66be487753b02d015fb622ded7f0e9798d73ffffffffffffffffffffffffffffffffffffffff1673ffffffffffffffffffffffffffffffffffffffff16815260200173d4a33860578de61dbabdc8bfdb98fd742fa7028e73ffffffffffffffffffffffffffffffffffffffff1673ffffffffffffffffffffffffffffffffffffffff1681526020017348731cf7e84dc94c5f84577882c14be11a5b745673ffffffffffffffffffffffffffffffffffffffff1673ffffffffffffffffffffffffffffffffffffffff16815260200173ab5c49580294aff77670f839ea425f5b78ab3ae773ffffffffffffffffffffffffffffffffffffffff1673ffffffffffffffffffffffffffffffffffffffff1681525060039060046200013792919062000288565b5060405180608001604052807373967c6a0904aa032c103b4104747e88c566b1a273ffffffffffffffffffffffffffffffffffffffff1673ffffffffffffffffffffffffffffffffffffffff16815260200173dd69db25f6d620a7bad3023c5d32761d353d3de973ffffffffffffffffffffffffffffffffffffffff1673ffffffffffffffffffffffffffffffffffffffff16815260200173326c977e6efc84e512bb9c30f76e30c160ed06fb73ffffffffffffffffffffffffffffffffffffffff1673ffffffffffffffffffffffffffffffffffffffff16815260200173d35cceead182dcee0f148ebac9447da2c4d449c473ffffffffffffffffffffffffffffffffffffffff1673ffffffffffffffffffffffffffffffffffffffff1681525060049060046200026b92919062000288565b503480156200027957600080fd5b50600160008190555062000336565b82805482825590600052602060002090810192821562000304579160200282015b82811115620003035782518260006101000a81548173ffffffffffffffffffffffffffffffffffffffff021916908373ffffffffffffffffffffffffffffffffffffffff16021790555091602001919060010190620002a9565b5b50905062000313919062000317565b5090565b5b808211156200033257600081600090555060010162000318565b5090565b611e3d80620003466000396000f3fe6080604052600436106100865760003560e01c80637bd2ea12116100595780637bd2ea121461015a57806388700d1c14610197578063976c331d146101d45780639f37092a146101fd578063b2ddee061461021957610086565b806330cfeda91461008b5780635e2f003b146100c857806363ba31cf146100f1578063670079eb1461011d575b600080fd5b34801561009757600080fd5b506100b260048036038101906100ad9190611594565b610242565b6040516100bf91906115da565b60405180910390f35b3480156100d457600080fd5b506100ef60048036038101906100ea9190611621565b61028b565b005b3480156100fd57600080fd5b506101066106b9565b6040516101149291906117dd565b60405180910390f35b34801561012957600080fd5b50610144600480360381019061013f9190611621565b61079c565b6040516101519190611823565b60405180910390f35b34801561016657600080fd5b50610181600480360381019061017c9190611621565b6107e1565b60405161018e91906115da565b60405180910390f35b3480156101a357600080fd5b506101be60048036038101906101b99190611621565b610a03565b6040516101cb919061186d565b60405180910390f35b3480156101e057600080fd5b506101fb60048036038101906101f69190611621565b610ace565b005b61021760048036038101906102129190611621565b610d47565b005b34801561022557600080fd5b50610240600480360381019061023b9190611621565b611134565b005b6000600660008373ffffffffffffffffffffffffffffffffffffffff1673ffffffffffffffffffffffffffffffffffffffff168152602001908152602001600020549050919050565b8181336000600560008573ffffffffffffffffffffffffffffffffffffffff1673ffffffffffffffffffffffffffffffffffffffff1681526020019081526020016000206000848152602001908152602001600020604051806040016040529081600082015481526020016001820160009054906101000a900473ffffffffffffffffffffffffffffffffffffffff1673ffffffffffffffffffffffffffffffffffffffff1673ffffffffffffffffffffffffffffffffffffffff168152505090506000816000015111156103995783836040517f4a5568d5000000000000000000000000000000000000000000000000000000008152600401610390929190611888565b60405180910390fd5b858533600083905060008173ffffffffffffffffffffffffffffffffffffffff16636352211e856040518263ffffffff1660e01b81526004016103dc91906115da565b602060405180830381865afa1580156103f9573d6000803e3d6000fd5b505050506040513d601f19601f8201168201806040525081019061041d91906118c6565b90508073ffffffffffffffffffffffffffffffffffffffff168373ffffffffffffffffffffffffffffffffffffffff1614610484576040517f30cd747100000000000000000000000000000000000000000000000000000000815260040160405180910390fd5b60008b90503073ffffffffffffffffffffffffffffffffffffffff168173ffffffffffffffffffffffffffffffffffffffff1663081812fc8d6040518263ffffffff1660e01b81526004016104d991906115da565b602060405180830381865afa1580156104f6573d6000803e3d6000fd5b505050506040513d601f19601f8201168201806040525081019061051a91906118c6565b73ffffffffffffffffffffffffffffffffffffffff1614610567576040517f4be3a2c500000000000000000000000000000000000000000000000000000000815260040160405180910390fd5b60006105738d8d6107e1565b905060405180604001604052808281526020013373ffffffffffffffffffffffffffffffffffffffff16815250600560008f73ffffffffffffffffffffffffffffffffffffffff1673ffffffffffffffffffffffffffffffffffffffff16815260200190815260200160002060008e81526020019081526020016000206000820151816000015560208201518160010160006101000a81548173ffffffffffffffffffffffffffffffffffffffff021916908373ffffffffffffffffffffffffffffffffffffffff1602179055509050508b8d73ffffffffffffffffffffffffffffffffffffffff163373ffffffffffffffffffffffffffffffffffffffff167fd547e933094f12a9159076970143ebe73234e64480317844b0dcb36117116de4846040516106a291906115da565b60405180910390a450505050505050505050505050565b606080600180548060200260200160405190810160405280929190818152602001828054801561073e57602002820191906000526020600020905b8160009054906101000a900473ffffffffffffffffffffffffffffffffffffffff1673ffffffffffffffffffffffffffffffffffffffff16815260200190600101908083116106f4575b50505050509150600280548060200260200160405190810160405280929190818152602001828054801561079157602002820191906000526020600020905b81548152602001906001019080831161077d575b505050505090509091565b6000806107c2732d25602551487c3f3354dd80d76d54383a243358600586866000611414565b8051906020012090506107d86000801b82611468565b91505092915050565b6000806107ee848461079c565b90506000805b60038054905082146109c157600060048381548110610816576108156118f3565b5b9060005260206000200160009054906101000a900473ffffffffffffffffffffffffffffffffffffffff16905060008173ffffffffffffffffffffffffffffffffffffffff166370a08231866040518263ffffffff1660e01b815260040161087e9190611823565b602060405180830381865afa15801561089b573d6000803e3d6000fd5b505050506040513d601f19601f820116820180604052508101906108bf9190611937565b9050600384815481106108d5576108d46118f3565b5b9060005260206000200160009054906101000a900473ffffffffffffffffffffffffffffffffffffffff16925060008373ffffffffffffffffffffffffffffffffffffffff166350d25bcd6040518163ffffffff1660e01b8152600401602060405180830381865afa15801561094f573d6000803e3d6000fd5b505050506040513d601f19601f82011682018060405250810190610973919061199a565b90506000819050600062989680828561098c91906119f6565b6109969190611a67565b90506000818a6109a69190611a98565b905087806109b390611acc565b9850505050505050506107f4565b7f73a17828f25de49abeb822ba8fa62091258dd86b0a7a20c86d08213a19ee05af84846040516109f2929190611b14565b60405180910390a150505092915050565b610a0b611501565b600560008473ffffffffffffffffffffffffffffffffffffffff1673ffffffffffffffffffffffffffffffffffffffff1681526020019081526020016000206000838152602001908152602001600020604051806040016040529081600082015481526020016001820160009054906101000a900473ffffffffffffffffffffffffffffffffffffffff1673ffffffffffffffffffffffffffffffffffffffff1673ffffffffffffffffffffffffffffffffffffffff1681525050905092915050565b610ad661147d565b81816000600560008473ffffffffffffffffffffffffffffffffffffffff1673ffffffffffffffffffffffffffffffffffffffff1681526020019081526020016000206000838152602001908152602001600020604051806040016040529081600082015481526020016001820160009054906101000a900473ffffffffffffffffffffffffffffffffffffffff1673ffffffffffffffffffffffffffffffffffffffff1673ffffffffffffffffffffffffffffffffffffffff168152505090506000816000015111610be25782826040517f6831488c000000000000000000000000000000000000000000000000000000008152600401610bd9929190611888565b60405180910390fd5b6000610bee868661079c565b90506000600560008873ffffffffffffffffffffffffffffffffffffffff1673ffffffffffffffffffffffffffffffffffffffff1681526020019081526020016000206000878152602001908152602001600020604051806040016040529081600082015481526020016001820160009054906101000a900473ffffffffffffffffffffffffffffffffffffffff1673ffffffffffffffffffffffffffffffffffffffff1673ffffffffffffffffffffffffffffffffffffffff16815250509050610cb987876107e1565b8160000181815250508173ffffffffffffffffffffffffffffffffffffffff16868873ffffffffffffffffffffffffffffffffffffffff167f50a2f2b9f37294c38dc2143d9e55af525a6867f2348aa2b388305faed865a4878460000151604051610d2491906115da565b60405180910390a4610d368787610d47565b5050505050610d436114cc565b5050565b610d4f61147d565b81816000600560008473ffffffffffffffffffffffffffffffffffffffff1673ffffffffffffffffffffffffffffffffffffffff1681526020019081526020016000206000838152602001908152602001600020604051806040016040529081600082015481526020016001820160009054906101000a900473ffffffffffffffffffffffffffffffffffffffff1673ffffffffffffffffffffffffffffffffffffffff1673ffffffffffffffffffffffffffffffffffffffff168152505090506000816000015111610e5b5782826040517f6831488c000000000000000000000000000000000000000000000000000000008152600401610e52929190611888565b60405180910390fd5b6000600560008773ffffffffffffffffffffffffffffffffffffffff1673ffffffffffffffffffffffffffffffffffffffff1681526020019081526020016000206000868152602001908152602001600020604051806040016040529081600082015481526020016001820160009054906101000a900473ffffffffffffffffffffffffffffffffffffffff1673ffffffffffffffffffffffffffffffffffffffff1673ffffffffffffffffffffffffffffffffffffffff168152505090508060000151341015610f6b57858582600001516040517f7c934565000000000000000000000000000000000000000000000000000000008152600401610f6293929190611b3d565b60405180910390fd5b3460066000836020015173ffffffffffffffffffffffffffffffffffffffff1673ffffffffffffffffffffffffffffffffffffffff1681526020019081526020016000206000828254610fbe9190611a98565b92505081905550600560008773ffffffffffffffffffffffffffffffffffffffff1673ffffffffffffffffffffffffffffffffffffffff16815260200190815260200160002060008681526020019081526020016000206000808201600090556001820160006101000a81549073ffffffffffffffffffffffffffffffffffffffff021916905550508573ffffffffffffffffffffffffffffffffffffffff166342842e0e826020015133886040518463ffffffff1660e01b815260040161108893929190611b74565b600060405180830381600087803b1580156110a257600080fd5b505af11580156110b6573d6000803e3d6000fd5b50505050848673ffffffffffffffffffffffffffffffffffffffff163373ffffffffffffffffffffffffffffffffffffffff167f263223b1dd81e51054a4e6f791d45a4a1ddb4aadcd93a2dfd892615c3fdac187846000015160405161111c91906115da565b60405180910390a4505050506111306114cc565b5050565b818133600083905060008173ffffffffffffffffffffffffffffffffffffffff16636352211e856040518263ffffffff1660e01b815260040161117791906115da565b602060405180830381865afa158015611194573d6000803e3d6000fd5b505050506040513d601f19601f820116820180604052508101906111b891906118c6565b90508073ffffffffffffffffffffffffffffffffffffffff168373ffffffffffffffffffffffffffffffffffffffff161461121f576040517f30cd747100000000000000000000000000000000000000000000000000000000815260040160405180910390fd5b86866000600560008473ffffffffffffffffffffffffffffffffffffffff1673ffffffffffffffffffffffffffffffffffffffff1681526020019081526020016000206000838152602001908152602001600020604051806040016040529081600082015481526020016001820160009054906101000a900473ffffffffffffffffffffffffffffffffffffffff1673ffffffffffffffffffffffffffffffffffffffff1673ffffffffffffffffffffffffffffffffffffffff16815250509050600081600001511161132b5782826040517f6831488c000000000000000000000000000000000000000000000000000000008152600401611322929190611888565b60405180910390fd5b600560008b73ffffffffffffffffffffffffffffffffffffffff1673ffffffffffffffffffffffffffffffffffffffff16815260200190815260200160002060008a81526020019081526020016000206000808201600090556001820160006101000a81549073ffffffffffffffffffffffffffffffffffffffff02191690555050888a73ffffffffffffffffffffffffffffffffffffffff163373ffffffffffffffffffffffffffffffffffffffff167f9ba1a3cb55ce8d63d072a886f94d2a744f50cddf82128e897d0661f5ec62315860405160405180910390a450505050505050505050565b6060858286868660405160200161142e9493929190611bab565b60405160208183030381529060405260405160200161144e929190611d4c565b604051602081830303815290604052905095945050505050565b60006114758383306114d6565b905092915050565b6002600054036114c2576040517f08c379a00000000000000000000000000000000000000000000000000000000081526004016114b990611de7565b60405180910390fd5b6002600081905550565b6001600081905550565b6000604051836040820152846020820152828152600b810160ff815360558120925050509392505050565b604051806040016040528060008152602001600073ffffffffffffffffffffffffffffffffffffffff1681525090565b600080fd5b600073ffffffffffffffffffffffffffffffffffffffff82169050919050565b600061156182611536565b9050919050565b61157181611556565b811461157c57600080fd5b50565b60008135905061158e81611568565b92915050565b6000602082840312156115aa576115a9611531565b5b60006115b88482850161157f565b91505092915050565b6000819050919050565b6115d4816115c1565b82525050565b60006020820190506115ef60008301846115cb565b92915050565b6115fe816115c1565b811461160957600080fd5b50565b60008135905061161b816115f5565b92915050565b6000806040838503121561163857611637611531565b5b60006116468582860161157f565b92505060206116578582860161160c565b9150509250929050565b600081519050919050565b600082825260208201905092915050565b6000819050602082019050919050565b61169681611556565b82525050565b60006116a8838361168d565b60208301905092915050565b6000602082019050919050565b60006116cc82611661565b6116d6818561166c565b93506116e18361167d565b8060005b838110156117125781516116f9888261169c565b9750611704836116b4565b9250506001810190506116e5565b5085935050505092915050565b600081519050919050565b600082825260208201905092915050565b6000819050602082019050919050565b611754816115c1565b82525050565b6000611766838361174b565b60208301905092915050565b6000602082019050919050565b600061178a8261171f565b611794818561172a565b935061179f8361173b565b8060005b838110156117d05781516117b7888261175a565b97506117c283611772565b9250506001810190506117a3565b5085935050505092915050565b600060408201905081810360008301526117f781856116c1565b9050818103602083015261180b818461177f565b90509392505050565b61181d81611556565b82525050565b60006020820190506118386000830184611814565b92915050565b604082016000820151611854600085018261174b565b506020820151611867602085018261168d565b50505050565b6000604082019050611882600083018461183e565b92915050565b600060408201905061189d6000830185611814565b6118aa60208301846115cb565b9392505050565b6000815190506118c081611568565b92915050565b6000602082840312156118dc576118db611531565b5b60006118ea848285016118b1565b91505092915050565b7f4e487b7100000000000000000000000000000000000000000000000000000000600052603260045260246000fd5b600081519050611931816115f5565b92915050565b60006020828403121561194d5761194c611531565b5b600061195b84828501611922565b91505092915050565b6000819050919050565b61197781611964565b811461198257600080fd5b50565b6000815190506119948161196e565b92915050565b6000602082840312156119b0576119af611531565b5b60006119be84828501611985565b91505092915050565b7f4e487b7100000000000000000000000000000000000000000000000000000000600052601160045260246000fd5b6000611a01826115c1565b9150611a0c836115c1565b9250828202611a1a816115c1565b91508282048414831517611a3157611a306119c7565b5b5092915050565b7f4e487b7100000000000000000000000000000000000000000000000000000000600052601260045260246000fd5b6000611a72826115c1565b9150611a7d836115c1565b925082611a8d57611a8c611a38565b5b828204905092915050565b6000611aa3826115c1565b9150611aae836115c1565b9250828201905080821115611ac657611ac56119c7565b5b92915050565b6000611ad7826115c1565b91507fffffffffffffffffffffffffffffffffffffffffffffffffffffffffffffffff8203611b0957611b086119c7565b5b600182019050919050565b6000604082019050611b2960008301856115cb565b611b366020830184611814565b9392505050565b6000606082019050611b526000830186611814565b611b5f60208301856115cb565b611b6c60408301846115cb565b949350505050565b6000606082019050611b896000830186611814565b611b966020830185611814565b611ba360408301846115cb565b949350505050565b6000608082019050611bc060008301876115cb565b611bcd60208301866115cb565b611bda6040830185611814565b611be760608301846115cb565b95945050505050565b600081905092915050565b7f3d60ad80600a3d3981f3363d3d373d3d3d363d73000000000000000000000000600082015250565b6000611c31601483611bf0565b9150611c3c82611bfb565b601482019050919050565b60008160601b9050919050565b6000611c5f82611c47565b9050919050565b6000611c7182611c54565b9050919050565b611c89611c8482611556565b611c66565b82525050565b7f5af43d82803e903d91602b57fd5bf30000000000000000000000000000000000600082015250565b6000611cc5600f83611bf0565b9150611cd082611c8f565b600f82019050919050565b600081519050919050565b600081905092915050565b60005b83811015611d0f578082015181840152602081019050611cf4565b60008484015250505050565b6000611d2682611cdb565b611d308185611ce6565b9350611d40818560208601611cf1565b80840191505092915050565b6000611d5782611c24565b9150611d638285611c78565b601482019150611d7282611cb8565b9150611d7e8284611d1b565b91508190509392505050565b600082825260208201905092915050565b7f5265656e7472616e637947756172643a207265656e7472616e742063616c6c00600082015250565b6000611dd1601f83611d8a565b9150611ddc82611d9b565b602082019050919050565b60006020820190508181036000830152611e0081611dc4565b905091905056fea26469706673582212202d9f270af72c41bb3418ac3c0b6f43dcf28c4023687b15be047c4d3283fb430d64736f6c63430008120033",
    "linkReferences": {},
    "deployedLinkReferences": {}
}